{
  "_format": "hh-sol-artifact-1",
  "contractName": "MyEpicNFT",
  "sourceName": "contracts/MyEpicNFT.sol",
  "abi": [
    {
      "inputs": [],
      "stateMutability": "nonpayable",
      "type": "constructor"
    },
    {
      "anonymous": false,
      "inputs": [
        {
          "indexed": true,
          "internalType": "address",
          "name": "owner",
          "type": "address"
        },
        {
          "indexed": true,
          "internalType": "address",
          "name": "approved",
          "type": "address"
        },
        {
          "indexed": true,
          "internalType": "uint256",
          "name": "tokenId",
          "type": "uint256"
        }
      ],
      "name": "Approval",
      "type": "event"
    },
    {
      "anonymous": false,
      "inputs": [
        {
          "indexed": true,
          "internalType": "address",
          "name": "owner",
          "type": "address"
        },
        {
          "indexed": true,
          "internalType": "address",
          "name": "operator",
          "type": "address"
        },
        {
          "indexed": false,
          "internalType": "bool",
          "name": "approved",
          "type": "bool"
        }
      ],
      "name": "ApprovalForAll",
      "type": "event"
    },
    {
      "anonymous": false,
      "inputs": [
        {
          "indexed": false,
          "internalType": "address",
          "name": "sender",
          "type": "address"
        },
        {
          "indexed": false,
          "internalType": "uint256",
          "name": "tokenId",
          "type": "uint256"
        }
      ],
      "name": "NewEpicNFTMinted",
      "type": "event"
    },
    {
      "anonymous": false,
      "inputs": [
        {
          "indexed": true,
          "internalType": "address",
          "name": "from",
          "type": "address"
        },
        {
          "indexed": true,
          "internalType": "address",
          "name": "to",
          "type": "address"
        },
        {
          "indexed": true,
          "internalType": "uint256",
          "name": "tokenId",
          "type": "uint256"
        }
      ],
      "name": "Transfer",
      "type": "event"
    },
    {
      "inputs": [
        {
          "internalType": "address",
          "name": "to",
          "type": "address"
        },
        {
          "internalType": "uint256",
          "name": "tokenId",
          "type": "uint256"
        }
      ],
      "name": "approve",
      "outputs": [],
      "stateMutability": "nonpayable",
      "type": "function"
    },
    {
      "inputs": [
        {
          "internalType": "address",
          "name": "owner",
          "type": "address"
        }
      ],
      "name": "balanceOf",
      "outputs": [
        {
          "internalType": "uint256",
          "name": "",
          "type": "uint256"
        }
      ],
      "stateMutability": "view",
      "type": "function"
    },
    {
      "inputs": [
        {
          "internalType": "uint256",
          "name": "tokenId",
          "type": "uint256"
        }
      ],
      "name": "getApproved",
      "outputs": [
        {
          "internalType": "address",
          "name": "",
          "type": "address"
        }
      ],
      "stateMutability": "view",
      "type": "function"
    },
    {
      "inputs": [
        {
          "internalType": "address",
          "name": "owner",
          "type": "address"
        },
        {
          "internalType": "address",
          "name": "operator",
          "type": "address"
        }
      ],
      "name": "isApprovedForAll",
      "outputs": [
        {
          "internalType": "bool",
          "name": "",
          "type": "bool"
        }
      ],
      "stateMutability": "view",
      "type": "function"
    },
    {
      "inputs": [],
      "name": "makeAnEpicNFT",
      "outputs": [],
      "stateMutability": "nonpayable",
      "type": "function"
    },
    {
      "inputs": [],
      "name": "name",
      "outputs": [
        {
          "internalType": "string",
          "name": "",
          "type": "string"
        }
      ],
      "stateMutability": "view",
      "type": "function"
    },
    {
      "inputs": [
        {
          "internalType": "uint256",
          "name": "tokenId",
          "type": "uint256"
        }
      ],
      "name": "ownerOf",
      "outputs": [
        {
          "internalType": "address",
          "name": "",
          "type": "address"
        }
      ],
      "stateMutability": "view",
      "type": "function"
    },
    {
      "inputs": [
        {
          "internalType": "uint256",
          "name": "tokenId",
          "type": "uint256"
        }
      ],
      "name": "pickRandomFirstWord",
      "outputs": [
        {
          "internalType": "string",
          "name": "",
          "type": "string"
        }
      ],
      "stateMutability": "view",
      "type": "function"
    },
    {
      "inputs": [
        {
          "internalType": "uint256",
          "name": "tokenId",
          "type": "uint256"
        }
      ],
      "name": "pickRandomSecondWord",
      "outputs": [
        {
          "internalType": "string",
          "name": "",
          "type": "string"
        }
      ],
      "stateMutability": "view",
      "type": "function"
    },
    {
      "inputs": [
        {
          "internalType": "uint256",
          "name": "tokenId",
          "type": "uint256"
        }
      ],
      "name": "pickRandomThirdWord",
      "outputs": [
        {
          "internalType": "string",
          "name": "",
          "type": "string"
        }
      ],
      "stateMutability": "view",
      "type": "function"
    },
    {
      "inputs": [
        {
          "internalType": "address",
          "name": "from",
          "type": "address"
        },
        {
          "internalType": "address",
          "name": "to",
          "type": "address"
        },
        {
          "internalType": "uint256",
          "name": "tokenId",
          "type": "uint256"
        }
      ],
      "name": "safeTransferFrom",
      "outputs": [],
      "stateMutability": "nonpayable",
      "type": "function"
    },
    {
      "inputs": [
        {
          "internalType": "address",
          "name": "from",
          "type": "address"
        },
        {
          "internalType": "address",
          "name": "to",
          "type": "address"
        },
        {
          "internalType": "uint256",
          "name": "tokenId",
          "type": "uint256"
        },
        {
          "internalType": "bytes",
          "name": "_data",
          "type": "bytes"
        }
      ],
      "name": "safeTransferFrom",
      "outputs": [],
      "stateMutability": "nonpayable",
      "type": "function"
    },
    {
      "inputs": [
        {
          "internalType": "address",
          "name": "operator",
          "type": "address"
        },
        {
          "internalType": "bool",
          "name": "approved",
          "type": "bool"
        }
      ],
      "name": "setApprovalForAll",
      "outputs": [],
      "stateMutability": "nonpayable",
      "type": "function"
    },
    {
      "inputs": [
        {
          "internalType": "bytes4",
          "name": "interfaceId",
          "type": "bytes4"
        }
      ],
      "name": "supportsInterface",
      "outputs": [
        {
          "internalType": "bool",
          "name": "",
          "type": "bool"
        }
      ],
      "stateMutability": "view",
      "type": "function"
    },
    {
      "inputs": [],
      "name": "symbol",
      "outputs": [
        {
          "internalType": "string",
          "name": "",
          "type": "string"
        }
      ],
      "stateMutability": "view",
      "type": "function"
    },
    {
      "inputs": [
        {
          "internalType": "uint256",
          "name": "tokenId",
          "type": "uint256"
        }
      ],
      "name": "tokenURI",
      "outputs": [
        {
          "internalType": "string",
          "name": "",
          "type": "string"
        }
      ],
      "stateMutability": "view",
      "type": "function"
    },
    {
      "inputs": [
        {
          "internalType": "address",
          "name": "from",
          "type": "address"
        },
        {
          "internalType": "address",
          "name": "to",
          "type": "address"
        },
        {
          "internalType": "uint256",
          "name": "tokenId",
          "type": "uint256"
        }
      ],
      "name": "transferFrom",
      "outputs": [],
      "stateMutability": "nonpayable",
      "type": "function"
    }
  ],
  "bytecode": "0x608060405260405180610160016040528061012f8152602001620047c961012f9139600890805190602001906200003892919062000c9e565b50604051806101e001604052806040518060400160405280600981526020017f5354524553536f7574000000000000000000000000000000000000000000000081525081526020016040518060400160405280600581526020017f686170707900000000000000000000000000000000000000000000000000000081525081526020016040518060400160405280600581526020017f537475666600000000000000000000000000000000000000000000000000000081525081526020016040518060400160405280600581526020017f776174657200000000000000000000000000000000000000000000000000000081525081526020016040518060400160405280600381526020017f444f47000000000000000000000000000000000000000000000000000000000081525081526020016040518060400160405280600781526020017f426974636f696f0000000000000000000000000000000000000000000000000081525081526020016040518060400160405280600581526020017f5072696d6f00000000000000000000000000000000000000000000000000000081525081526020016040518060400160405280600481526020017f4a6f656c0000000000000000000000000000000000000000000000000000000081525081526020016040518060400160405280600481526020017f537461790000000000000000000000000000000000000000000000000000000081525081526020016040518060400160405280600b81526020017f5761746572426f74746c6500000000000000000000000000000000000000000081525081526020016040518060400160405280601381526020017f53656c6c4f6e746865446f776e4d61726b65740000000000000000000000000081525081526020016040518060400160405280600981526020017f446f6f436c6f736564000000000000000000000000000000000000000000000081525081526020016040518060400160405280600381526020017f437279000000000000000000000000000000000000000000000000000000000081525081526020016040518060400160405280600581526020017f4c6f73657200000000000000000000000000000000000000000000000000000081525081526020016040518060400160405280600681526020017f5374726f6e670000000000000000000000000000000000000000000000000000815250815250600990600f620003ca92919062000d2f565b50604051806101e001604052806040518060400160405280600581526020017f416e67727900000000000000000000000000000000000000000000000000000081525081526020016040518060400160405280600681526020017f54686f6d6173000000000000000000000000000000000000000000000000000081525081526020016040518060400160405280600681526020017f4d61726b6574000000000000000000000000000000000000000000000000000081525081526020016040518060400160405280600581526020017f4d6572646100000000000000000000000000000000000000000000000000000081525081526020016040518060400160405280600481526020017f486f6c640000000000000000000000000000000000000000000000000000000081525081526020016040518060400160405280600381526020017f427579000000000000000000000000000000000000000000000000000000000081525081526020016040518060400160405280600481526020017f686172640000000000000000000000000000000000000000000000000000000081525081526020016040518060400160405280600a81526020017f446f416e797468696e670000000000000000000000000000000000000000000081525081526020016040518060400160405280600781526020017f417765736f6d650000000000000000000000000000000000000000000000000081525081526020016040518060400160405280600581526020017f536861726500000000000000000000000000000000000000000000000000000081525081526020016040518060400160405280600681526020017f57696e6e6572000000000000000000000000000000000000000000000000000081525081526020016040518060400160405280600481526020017f4865726f0000000000000000000000000000000000000000000000000000000081525081526020016040518060400160405280600581526020017f436170617a00000000000000000000000000000000000000000000000000000081525081526020016040518060400160405280600781526020017f57617272696f720000000000000000000000000000000000000000000000000081525081526020016040518060400160405280600481526020017f5765616b00000000000000000000000000000000000000000000000000000000815250815250600a90600f6200075c92919062000d2f565b50604051806101e001604052806040518060400160405280600481526020017f486967680000000000000000000000000000000000000000000000000000000081525081526020016040518060400160405280600681526020017f4c6562726f6e000000000000000000000000000000000000000000000000000081525081526020016040518060400160405280600481526020017f446f776e0000000000000000000000000000000000000000000000000000000081525081526020016040518060400160405280600481526020017f42756c6c0000000000000000000000000000000000000000000000000000000081525081526020016040518060400160405280600481526020017f426561720000000000000000000000000000000000000000000000000000000081525081526020016040518060400160405280600581526020017f4472756e6b00000000000000000000000000000000000000000000000000000081525081526020016040518060400160405280600781526020017f4865616c7468790000000000000000000000000000000000000000000000000081525081526020016040518060400160405280600681526020017f46616d696c79000000000000000000000000000000000000000000000000000081525081526020016040518060400160405280600d81526020017f436f6e73697374656e63696c790000000000000000000000000000000000000081525081526020016040518060400160405280600481526020017f77616c6c0000000000000000000000000000000000000000000000000000000081525081526020016040518060400160405280600581526020017f436861697200000000000000000000000000000000000000000000000000000081525081526020016040518060400160405280600481526020017f536b696e0000000000000000000000000000000000000000000000000000000081525081526020016040518060400160405280600581526020017f47616d657200000000000000000000000000000000000000000000000000000081525081526020016040518060400160405280600381526020017f536164000000000000000000000000000000000000000000000000000000000081525081526020016040518060400160405280600681526020017f4d6f746865720000000000000000000000000000000000000000000000000000815250815250600b90600f62000aee92919062000d2f565b5034801562000afc57600080fd5b506040518060400160405280600a81526020017f436f7573696e4e657874000000000000000000000000000000000000000000008152506040518060400160405280600581526020017f5052494d4f000000000000000000000000000000000000000000000000000000815250816000908051906020019062000b8192919062000c9e565b50806001908051906020019062000b9a92919062000c9e565b50505062000bcc604051806060016040528060258152602001620047a46025913962000bd260201b620010be1760201c565b62000f50565b62000c728160405160240162000be9919062000e64565b6040516020818303038152906040527f41304fac000000000000000000000000000000000000000000000000000000007bffffffffffffffffffffffffffffffffffffffffffffffffffffffff19166020820180517bffffffffffffffffffffffffffffffffffffffffffffffffffffffff838183161783525050505062000c7560201b60201c565b50565b60008151905060006a636f6e736f6c652e6c6f679050602083016000808483855afa5050505050565b82805462000cac9062000eda565b90600052602060002090601f01602090048101928262000cd0576000855562000d1c565b82601f1062000ceb57805160ff191683800117855562000d1c565b8280016001018555821562000d1c579182015b8281111562000d1b57825182559160200191906001019062000cfe565b5b50905062000d2b919062000d96565b5090565b82805482825590600052602060002090810192821562000d83579160200282015b8281111562000d8257825182908051906020019062000d7192919062000c9e565b509160200191906001019062000d50565b5b50905062000d92919062000db5565b5090565b5b8082111562000db157600081600090555060010162000d97565b5090565b5b8082111562000dd9576000818162000dcf919062000ddd565b5060010162000db6565b5090565b50805462000deb9062000eda565b6000825580601f1062000dff575062000e20565b601f01602090049060005260206000209081019062000e1f919062000d96565b5b50565b600062000e308262000e88565b62000e3c818562000e93565b935062000e4e81856020860162000ea4565b62000e598162000f3f565b840191505092915050565b6000602082019050818103600083015262000e80818462000e23565b905092915050565b600081519050919050565b600082825260208201905092915050565b60005b8381101562000ec457808201518184015260208101905062000ea7565b8381111562000ed4576000848401525b50505050565b6000600282049050600182168062000ef357607f821691505b6020821081141562000f0a5762000f0962000f10565b5b50919050565b7f4e487b7100000000000000000000000000000000000000000000000000000000600052602260045260246000fd5b6000601f19601f8301169050919050565b6138448062000f606000396000f3fe608060405234801561001057600080fd5b506004361061010b5760003560e01c806370a08231116100a2578063b88d4fde11610071578063b88d4fde146102dc578063c575757a146102f8578063c87b56dd14610328578063de9d132f14610358578063e985e9c5146103625761010b565b806370a082311461024257806395d89b4114610272578063a22cb46514610290578063b187301f146102ac5761010b565b806323b872dd116100de57806323b872dd146101aa5780632de38d68146101c657806342842e0e146101f65780636352211e146102125761010b565b806301ffc9a71461011057806306fdde0314610140578063081812fc1461015e578063095ea7b31461018e575b600080fd5b61012a600480360381019061012591906124be565b610392565b60405161013791906130ba565b60405180910390f35b610148610474565b60405161015591906130d5565b60405180910390f35b61017860048036038101906101739190612510565b610506565b604051610185919061302a565b60405180910390f35b6101a860048036038101906101a39190612482565b61058b565b005b6101c460048036038101906101bf919061237c565b6106a3565b005b6101e060048036038101906101db9190612510565b610703565b6040516101ed91906130d5565b60405180910390f35b610210600480360381019061020b919061237c565b610821565b005b61022c60048036038101906102279190612510565b610841565b604051610239919061302a565b60405180910390f35b61025c60048036038101906102579190612317565b6108f3565b6040516102699190613335565b60405180910390f35b61027a6109ab565b60405161028791906130d5565b60405180910390f35b6102aa60048036038101906102a59190612446565b610a3d565b005b6102c660048036038101906102c19190612510565b610a53565b6040516102d391906130d5565b60405180910390f35b6102f660048036038101906102f191906123cb565b610b71565b005b610312600480360381019061030d9190612510565b610bd3565b60405161031f91906130d5565b60405180910390f35b610342600480360381019061033d9190612510565b610cf1565b60405161034f91906130d5565b60405180910390f35b610360610e43565b005b61037c60048036038101906103779190612340565b61102a565b60405161038991906130ba565b60405180910390f35b60007f80ac58cd000000000000000000000000000000000000000000000000000000007bffffffffffffffffffffffffffffffffffffffffffffffffffffffff1916827bffffffffffffffffffffffffffffffffffffffffffffffffffffffff1916148061045d57507f5b5e139f000000000000000000000000000000000000000000000000000000007bffffffffffffffffffffffffffffffffffffffffffffffffffffffff1916827bffffffffffffffffffffffffffffffffffffffffffffffffffffffff1916145b8061046d575061046c82611157565b5b9050919050565b606060008054610483906135d4565b80601f01602080910402602001604051908101604052809291908181526020018280546104af906135d4565b80156104fc5780601f106104d1576101008083540402835291602001916104fc565b820191906000526020600020905b8154815290600101906020018083116104df57829003601f168201915b5050505050905090565b6000610511826111c1565b610550576040517f08c379a000000000000000000000000000000000000000000000000000000000815260040161054790613295565b60405180910390fd5b6004600083815260200190815260200160002060009054906101000a900473ffffffffffffffffffffffffffffffffffffffff169050919050565b600061059682610841565b90508073ffffffffffffffffffffffffffffffffffffffff168373ffffffffffffffffffffffffffffffffffffffff161415610607576040517f08c379a00000000000000000000000000000000000000000000000000000000081526004016105fe906132f5565b60405180910390fd5b8073ffffffffffffffffffffffffffffffffffffffff1661062661122d565b73ffffffffffffffffffffffffffffffffffffffff16148061065557506106548161064f61122d565b61102a565b5b610694576040517f08c379a000000000000000000000000000000000000000000000000000000000815260040161068b906131d5565b60405180910390fd5b61069e8383611235565b505050565b6106b46106ae61122d565b826112ee565b6106f3576040517f08c379a00000000000000000000000000000000000000000000000000000000081526004016106ea90613315565b60405180910390fd5b6106fe8383836113cc565b505050565b6060600061073761071384611628565b6040516020016107239190612fe6565b6040516020818303038152906040526117d5565b90506009805490508161074a919061364f565b905060098181548110610786577f4e487b7100000000000000000000000000000000000000000000000000000000600052603260045260246000fd5b90600052602060002001805461079b906135d4565b80601f01602080910402602001604051908101604052809291908181526020018280546107c7906135d4565b80156108145780601f106107e957610100808354040283529160200191610814565b820191906000526020600020905b8154815290600101906020018083116107f757829003601f168201915b5050505050915050919050565b61083c83838360405180602001604052806000815250610b71565b505050565b6000806002600084815260200190815260200160002060009054906101000a900473ffffffffffffffffffffffffffffffffffffffff169050600073ffffffffffffffffffffffffffffffffffffffff168173ffffffffffffffffffffffffffffffffffffffff1614156108ea576040517f08c379a00000000000000000000000000000000000000000000000000000000081526004016108e190613215565b60405180910390fd5b80915050919050565b60008073ffffffffffffffffffffffffffffffffffffffff168273ffffffffffffffffffffffffffffffffffffffff161415610964576040517f08c379a000000000000000000000000000000000000000000000000000000000815260040161095b906131f5565b60405180910390fd5b600360008373ffffffffffffffffffffffffffffffffffffffff1673ffffffffffffffffffffffffffffffffffffffff168152602001908152602001600020549050919050565b6060600180546109ba906135d4565b80601f01602080910402602001604051908101604052809291908181526020018280546109e6906135d4565b8015610a335780601f10610a0857610100808354040283529160200191610a33565b820191906000526020600020905b815481529060010190602001808311610a1657829003601f168201915b5050505050905090565b610a4f610a4861122d565b8383611808565b5050565b60606000610a87610a6384611628565b604051602001610a739190612f7f565b6040516020818303038152906040526117d5565b9050600a8054905081610a9a919061364f565b9050600a8181548110610ad6577f4e487b7100000000000000000000000000000000000000000000000000000000600052603260045260246000fd5b906000526020600020018054610aeb906135d4565b80601f0160208091040260200160405190810160405280929190818152602001828054610b17906135d4565b8015610b645780601f10610b3957610100808354040283529160200191610b64565b820191906000526020600020905b815481529060010190602001808311610b4757829003601f168201915b5050505050915050919050565b610b82610b7c61122d565b836112ee565b610bc1576040517f08c379a0000000000000000000000000000000000000000000000000000000008152600401610bb890613315565b60405180910390fd5b610bcd84848484611975565b50505050565b60606000610c07610be384611628565b604051602001610bf39190612f5d565b6040516020818303038152906040526117d5565b9050600b8054905081610c1a919061364f565b9050600b8181548110610c56577f4e487b7100000000000000000000000000000000000000000000000000000000600052603260045260246000fd5b906000526020600020018054610c6b906135d4565b80601f0160208091040260200160405190810160405280929190818152602001828054610c97906135d4565b8015610ce45780601f10610cb957610100808354040283529160200191610ce4565b820191906000526020600020905b815481529060010190602001808311610cc757829003601f168201915b5050505050915050919050565b6060610cfc826111c1565b610d3b576040517f08c379a0000000000000000000000000000000000000000000000000000000008152600401610d3290613275565b60405180910390fd5b6000600660008481526020019081526020016000208054610d5b906135d4565b80601f0160208091040260200160405190810160405280929190818152602001828054610d87906135d4565b8015610dd45780601f10610da957610100808354040283529160200191610dd4565b820191906000526020600020905b815481529060010190602001808311610db757829003601f168201915b505050505090506000610de56119d1565b9050600081511415610dfb578192505050610e3e565b600082511115610e30578082604051602001610e18929190612ed9565b60405160208183030381529060405292505050610e3e565b610e39846119e8565b925050505b919050565b6000610e4f6007611a8f565b90506000610e5c82610703565b90506000610e6983610a53565b90506000610e7684610bd3565b90506000838383604051602001610e8f93929190612efd565b60405160208183030381529060405290506000600882604051602001610eb6929190612f2e565b60405160208183030381529060405290506000610efb83610ed684611a9d565b604051602001610ee7929190612fa1565b604051602081830303815290604052611a9d565b9050600081604051602001610f109190613008565b6040516020818303038152906040529050610f5f6040518060400160405280601581526020017f0a2d2d2d2d2d2d2d2d2d2d2d2d2d2d2d2d2d2d2d2d00000000000000000000008152506110be565b610f68816110be565b610fa66040518060400160405280601581526020017f2d2d2d2d2d2d2d2d2d2d2d2d2d2d2d2d2d2d2d2d0a00000000000000000000008152506110be565b610fb03389611c5b565b610fba8882611c79565b610fc46007611ced565b610fe76040518060600160405280602581526020016137aa602591398933611d03565b7febb98688741ffa4c7589bf325de30cf7becb63de567842e1ccdb6cb949fdc82c3389604051611018929190613091565b60405180910390a15050505050505050565b6000600560008473ffffffffffffffffffffffffffffffffffffffff1673ffffffffffffffffffffffffffffffffffffffff16815260200190815260200160002060008373ffffffffffffffffffffffffffffffffffffffff1673ffffffffffffffffffffffffffffffffffffffff16815260200190815260200160002060009054906101000a900460ff16905092915050565b611154816040516024016110d291906130d5565b6040516020818303038152906040527f41304fac000000000000000000000000000000000000000000000000000000007bffffffffffffffffffffffffffffffffffffffffffffffffffffffff19166020820180517bffffffffffffffffffffffffffffffffffffffffffffffffffffffff8381831617835250505050611da2565b50565b60007f01ffc9a7000000000000000000000000000000000000000000000000000000007bffffffffffffffffffffffffffffffffffffffffffffffffffffffff1916827bffffffffffffffffffffffffffffffffffffffffffffffffffffffff1916149050919050565b60008073ffffffffffffffffffffffffffffffffffffffff166002600084815260200190815260200160002060009054906101000a900473ffffffffffffffffffffffffffffffffffffffff1673ffffffffffffffffffffffffffffffffffffffff1614159050919050565b600033905090565b816004600083815260200190815260200160002060006101000a81548173ffffffffffffffffffffffffffffffffffffffff021916908373ffffffffffffffffffffffffffffffffffffffff160217905550808273ffffffffffffffffffffffffffffffffffffffff166112a883610841565b73ffffffffffffffffffffffffffffffffffffffff167f8c5be1e5ebec7d5bd14f71427d1e84f3dd0314c0f7b2291e5b200ac8c7c3b92560405160405180910390a45050565b60006112f9826111c1565b611338576040517f08c379a000000000000000000000000000000000000000000000000000000000815260040161132f906131b5565b60405180910390fd5b600061134383610841565b90508073ffffffffffffffffffffffffffffffffffffffff168473ffffffffffffffffffffffffffffffffffffffff1614806113b257508373ffffffffffffffffffffffffffffffffffffffff1661139a84610506565b73ffffffffffffffffffffffffffffffffffffffff16145b806113c357506113c2818561102a565b5b91505092915050565b8273ffffffffffffffffffffffffffffffffffffffff166113ec82610841565b73ffffffffffffffffffffffffffffffffffffffff1614611442576040517f08c379a0000000000000000000000000000000000000000000000000000000008152600401611439906132b5565b60405180910390fd5b600073ffffffffffffffffffffffffffffffffffffffff168273ffffffffffffffffffffffffffffffffffffffff1614156114b2576040517f08c379a00000000000000000000000000000000000000000000000000000000081526004016114a990613175565b60405180910390fd5b6114bd838383611dcb565b6114c8600082611235565b6001600360008573ffffffffffffffffffffffffffffffffffffffff1673ffffffffffffffffffffffffffffffffffffffff168152602001908152602001600020600082825461151891906134ea565b925050819055506001600360008473ffffffffffffffffffffffffffffffffffffffff1673ffffffffffffffffffffffffffffffffffffffff168152602001908152602001600020600082825461156f9190613409565b92505081905550816002600083815260200190815260200160002060006101000a81548173ffffffffffffffffffffffffffffffffffffffff021916908373ffffffffffffffffffffffffffffffffffffffff160217905550808273ffffffffffffffffffffffffffffffffffffffff168473ffffffffffffffffffffffffffffffffffffffff167fddf252ad1be2c89b69c2b068fc378daa952ba7f163c4a11628f55a4df523b3ef60405160405180910390a4505050565b60606000821415611670576040518060400160405280600181526020017f300000000000000000000000000000000000000000000000000000000000000081525090506117d0565b600082905060005b600082146116a257808061168b90613606565b915050600a8261169b919061345f565b9150611678565b60008167ffffffffffffffff8111156116e4577f4e487b7100000000000000000000000000000000000000000000000000000000600052604160045260246000fd5b6040519080825280601f01601f1916602001820160405280156117165781602001600182028036833780820191505090505b5090505b600085146117c95760018261172f91906134ea565b9150600a8561173e919061364f565b603061174a9190613409565b60f81b818381518110611786577f4e487b7100000000000000000000000000000000000000000000000000000000600052603260045260246000fd5b60200101907effffffffffffffffffffffffffffffffffffffffffffffffffffffffffffff1916908160001a905350600a856117c2919061345f565b945061171a565b8093505050505b919050565b6000816040516020016117e89190612ec2565b6040516020818303038152906040528051906020012060001c9050919050565b8173ffffffffffffffffffffffffffffffffffffffff168373ffffffffffffffffffffffffffffffffffffffff161415611877576040517f08c379a000000000000000000000000000000000000000000000000000000000815260040161186e90613195565b60405180910390fd5b80600560008573ffffffffffffffffffffffffffffffffffffffff1673ffffffffffffffffffffffffffffffffffffffff16815260200190815260200160002060008473ffffffffffffffffffffffffffffffffffffffff1673ffffffffffffffffffffffffffffffffffffffff16815260200190815260200160002060006101000a81548160ff0219169083151502179055508173ffffffffffffffffffffffffffffffffffffffff168373ffffffffffffffffffffffffffffffffffffffff167f17307eab39ab6107e8899845ad3d59bd9653f200f220920489ca2b5937696c318360405161196891906130ba565b60405180910390a3505050565b6119808484846113cc565b61198c84848484611dd0565b6119cb576040517f08c379a00000000000000000000000000000000000000000000000000000000081526004016119c290613135565b60405180910390fd5b50505050565b606060405180602001604052806000815250905090565b60606119f3826111c1565b611a32576040517f08c379a0000000000000000000000000000000000000000000000000000000008152600401611a29906132d5565b60405180910390fd5b6000611a3c6119d1565b90506000815111611a5c5760405180602001604052806000815250611a87565b80611a6684611628565b604051602001611a77929190612ed9565b6040516020818303038152906040525b915050919050565b600081600001549050919050565b60606000825190506000811415611ac65760405180602001604052806000815250915050611c56565b60006003600283611ad79190613409565b611ae1919061345f565b6004611aed9190613490565b90506000602082611afe9190613409565b67ffffffffffffffff811115611b3d577f4e487b7100000000000000000000000000000000000000000000000000000000600052604160045260246000fd5b6040519080825280601f01601f191660200182016040528015611b6f5781602001600182028036833780820191505090505b50905060006040518060600160405280604081526020016137cf604091399050600181016020830160005b86811015611c135760038101905062ffffff818a015116603f8160121c168401518060081b905060ff603f83600c1c1686015116810190508060081b905060ff603f8360061c1686015116810190508060081b905060ff603f831686015116810190508060e01b90508084526004840193505050611b9a565b506003860660018114611c2d5760028114611c3d57611c48565b613d3d60f01b6002830352611c48565b603d60f81b60018303525b508484525050819450505050505b919050565b611c75828260405180602001604052806000815250611f67565b5050565b611c82826111c1565b611cc1576040517f08c379a0000000000000000000000000000000000000000000000000000000008152600401611cb890613235565b60405180910390fd5b80600660008481526020019081526020016000209080519060200190611ce89291906121a3565b505050565b6001816000016000828254019250508190555050565b611d9d838383604051602401611d1b939291906130f7565b6040516020818303038152906040527fe3849f79000000000000000000000000000000000000000000000000000000007bffffffffffffffffffffffffffffffffffffffffffffffffffffffff19166020820180517bffffffffffffffffffffffffffffffffffffffffffffffffffffffff8381831617835250505050611da2565b505050565b60008151905060006a636f6e736f6c652e6c6f679050602083016000808483855afa5050505050565b505050565b6000611df18473ffffffffffffffffffffffffffffffffffffffff16611fc2565b15611f5a578373ffffffffffffffffffffffffffffffffffffffff1663150b7a02611e1a61122d565b8786866040518563ffffffff1660e01b8152600401611e3c9493929190613045565b602060405180830381600087803b158015611e5657600080fd5b505af1925050508015611e8757506040513d601f19601f82011682018060405250810190611e8491906124e7565b60015b611f0a573d8060008114611eb7576040519150601f19603f3d011682016040523d82523d6000602084013e611ebc565b606091505b50600081511415611f02576040517f08c379a0000000000000000000000000000000000000000000000000000000008152600401611ef990613135565b60405180910390fd5b805181602001fd5b63150b7a0260e01b7bffffffffffffffffffffffffffffffffffffffffffffffffffffffff1916817bffffffffffffffffffffffffffffffffffffffffffffffffffffffff191614915050611f5f565b600190505b949350505050565b611f718383611fd5565b611f7e6000848484611dd0565b611fbd576040517f08c379a0000000000000000000000000000000000000000000000000000000008152600401611fb490613135565b60405180910390fd5b505050565b600080823b905060008111915050919050565b600073ffffffffffffffffffffffffffffffffffffffff168273ffffffffffffffffffffffffffffffffffffffff161415612045576040517f08c379a000000000000000000000000000000000000000000000000000000000815260040161203c90613255565b60405180910390fd5b61204e816111c1565b1561208e576040517f08c379a000000000000000000000000000000000000000000000000000000000815260040161208590613155565b60405180910390fd5b61209a60008383611dcb565b6001600360008473ffffffffffffffffffffffffffffffffffffffff1673ffffffffffffffffffffffffffffffffffffffff16815260200190815260200160002060008282546120ea9190613409565b92505081905550816002600083815260200190815260200160002060006101000a81548173ffffffffffffffffffffffffffffffffffffffff021916908373ffffffffffffffffffffffffffffffffffffffff160217905550808273ffffffffffffffffffffffffffffffffffffffff16600073ffffffffffffffffffffffffffffffffffffffff167fddf252ad1be2c89b69c2b068fc378daa952ba7f163c4a11628f55a4df523b3ef60405160405180910390a45050565b8280546121af906135d4565b90600052602060002090601f0160209004810192826121d15760008555612218565b82601f106121ea57805160ff1916838001178555612218565b82800160010185558215612218579182015b828111156122175782518255916020019190600101906121fc565b5b5090506122259190612229565b5090565b5b8082111561224257600081600090555060010161222a565b5090565b600061225961225484613381565b613350565b90508281526020810184848401111561227157600080fd5b61227c848285613592565b509392505050565b6000813590506122938161374d565b92915050565b6000813590506122a881613764565b92915050565b6000813590506122bd8161377b565b92915050565b6000815190506122d28161377b565b92915050565b600082601f8301126122e957600080fd5b81356122f9848260208601612246565b91505092915050565b60008135905061231181613792565b92915050565b60006020828403121561232957600080fd5b600061233784828501612284565b91505092915050565b6000806040838503121561235357600080fd5b600061236185828601612284565b925050602061237285828601612284565b9150509250929050565b60008060006060848603121561239157600080fd5b600061239f86828701612284565b93505060206123b086828701612284565b92505060406123c186828701612302565b9150509250925092565b600080600080608085870312156123e157600080fd5b60006123ef87828801612284565b945050602061240087828801612284565b935050604061241187828801612302565b925050606085013567ffffffffffffffff81111561242e57600080fd5b61243a878288016122d8565b91505092959194509250565b6000806040838503121561245957600080fd5b600061246785828601612284565b925050602061247885828601612299565b9150509250929050565b6000806040838503121561249557600080fd5b60006124a385828601612284565b92505060206124b485828601612302565b9150509250929050565b6000602082840312156124d057600080fd5b60006124de848285016122ae565b91505092915050565b6000602082840312156124f957600080fd5b6000612507848285016122c3565b91505092915050565b60006020828403121561252257600080fd5b600061253084828501612302565b91505092915050565b6125428161351e565b82525050565b61255181613530565b82525050565b6000612562826133c6565b61256c81856133dc565b935061257c8185602086016135a1565b6125858161373c565b840191505092915050565b600061259b826133d1565b6125a581856133ed565b93506125b58185602086016135a1565b6125be8161373c565b840191505092915050565b60006125d4826133d1565b6125de81856133fe565b93506125ee8185602086016135a1565b80840191505092915050565b60008154612607816135d4565b61261181866133fe565b9450600182166000811461262c576001811461263d57612670565b60ff19831686528186019350612670565b612646856133b1565b60005b8381101561266857815481890152600182019150602081019050612649565b838801955050505b50505092915050565b60006126866032836133ed565b91507f4552433732313a207472616e7366657220746f206e6f6e20455243373231526560008301527f63656976657220696d706c656d656e74657200000000000000000000000000006020830152604082019050919050565b60006126ec601c836133ed565b91507f4552433732313a20746f6b656e20616c7265616479206d696e746564000000006000830152602082019050919050565b600061272c600a836133fe565b91507f54484952445f574f5244000000000000000000000000000000000000000000006000830152600a82019050919050565b600061276c605b836133fe565b91507f222c2022646573637269706974696f6e223a20224120686967686c7920696e6360008301527f72656469626c65207072696d6f20737175617265222c2022696d616765223a2060208301527f22646174613a696d6167652f7376672b786d6c3b6261736536342c00000000006040830152605b82019050919050565b60006127f86024836133ed565b91507f4552433732313a207472616e7366657220746f20746865207a65726f2061646460008301527f72657373000000000000000000000000000000000000000000000000000000006020830152604082019050919050565b600061285e6019836133ed565b91507f4552433732313a20617070726f766520746f2063616c6c6572000000000000006000830152602082019050919050565b600061289e600b836133fe565b91507f5345434f4e445f574f52440000000000000000000000000000000000000000006000830152600b82019050919050565b60006128de602c836133ed565b91507f4552433732313a206f70657261746f7220717565727920666f72206e6f6e657860008301527f697374656e7420746f6b656e00000000000000000000000000000000000000006020830152604082019050919050565b6000612944600d836133fe565b91507f3c2f746578743e3c2f7376673e000000000000000000000000000000000000006000830152600d82019050919050565b60006129846038836133ed565b91507f4552433732313a20617070726f76652063616c6c6572206973206e6f74206f7760008301527f6e6572206e6f7220617070726f76656420666f7220616c6c00000000000000006020830152604082019050919050565b60006129ea602a836133ed565b91507f4552433732313a2062616c616e636520717565727920666f7220746865207a6560008301527f726f2061646472657373000000000000000000000000000000000000000000006020830152604082019050919050565b6000612a506029836133ed565b91507f4552433732313a206f776e657220717565727920666f72206e6f6e657869737460008301527f656e7420746f6b656e00000000000000000000000000000000000000000000006020830152604082019050919050565b6000612ab6602e836133ed565b91507f45524337323155524953746f726167653a2055524920736574206f66206e6f6e60008301527f6578697374656e7420746f6b656e0000000000000000000000000000000000006020830152604082019050919050565b6000612b1c6002836133fe565b91507f227d0000000000000000000000000000000000000000000000000000000000006000830152600282019050919050565b6000612b5c6020836133ed565b91507f4552433732313a206d696e7420746f20746865207a65726f20616464726573736000830152602082019050919050565b6000612b9c6031836133ed565b91507f45524337323155524953746f726167653a2055524920717565727920666f722060008301527f6e6f6e6578697374656e7420746f6b656e0000000000000000000000000000006020830152604082019050919050565b6000612c02602c836133ed565b91507f4552433732313a20617070726f76656420717565727920666f72206e6f6e657860008301527f697374656e7420746f6b656e00000000000000000000000000000000000000006020830152604082019050919050565b6000612c686029836133ed565b91507f4552433732313a207472616e73666572206f6620746f6b656e2074686174206960008301527f73206e6f74206f776e00000000000000000000000000000000000000000000006020830152604082019050919050565b6000612cce602f836133ed565b91507f4552433732314d657461646174613a2055524920717565727920666f72206e6f60008301527f6e6578697374656e7420746f6b656e00000000000000000000000000000000006020830152604082019050919050565b6000612d34600a836133fe565b91507f7b226e616d65223a2022000000000000000000000000000000000000000000006000830152600a82019050919050565b6000612d746021836133ed565b91507f4552433732313a20617070726f76616c20746f2063757272656e74206f776e6560008301527f72000000000000000000000000000000000000000000000000000000000000006020830152604082019050919050565b6000612dda600a836133fe565b91507f46495253545f574f5244000000000000000000000000000000000000000000006000830152600a82019050919050565b6000612e1a601d836133fe565b91507f646174613a6170706c69636174696f6e2f6a736f6e3b6261736536342c0000006000830152601d82019050919050565b6000612e5a6031836133ed565b91507f4552433732313a207472616e736665722063616c6c6572206973206e6f74206f60008301527f776e6572206e6f7220617070726f7665640000000000000000000000000000006020830152604082019050919050565b612ebc81613588565b82525050565b6000612ece82846125c9565b915081905092915050565b6000612ee582856125c9565b9150612ef182846125c9565b91508190509392505050565b6000612f0982866125c9565b9150612f1582856125c9565b9150612f2182846125c9565b9150819050949350505050565b6000612f3a82856125fa565b9150612f4682846125c9565b9150612f5182612937565b91508190509392505050565b6000612f688261271f565b9150612f7482846125c9565b915081905092915050565b6000612f8a82612891565b9150612f9682846125c9565b915081905092915050565b6000612fac82612d27565b9150612fb882856125c9565b9150612fc38261275f565b9150612fcf82846125c9565b9150612fda82612b0f565b91508190509392505050565b6000612ff182612dcd565b9150612ffd82846125c9565b915081905092915050565b600061301382612e0d565b915061301f82846125c9565b915081905092915050565b600060208201905061303f6000830184612539565b92915050565b600060808201905061305a6000830187612539565b6130676020830186612539565b6130746040830185612eb3565b81810360608301526130868184612557565b905095945050505050565b60006040820190506130a66000830185612539565b6130b36020830184612eb3565b9392505050565b60006020820190506130cf6000830184612548565b92915050565b600060208201905081810360008301526130ef8184612590565b905092915050565b600060608201905081810360008301526131118186612590565b90506131206020830185612eb3565b61312d6040830184612539565b949350505050565b6000602082019050818103600083015261314e81612679565b9050919050565b6000602082019050818103600083015261316e816126df565b9050919050565b6000602082019050818103600083015261318e816127eb565b9050919050565b600060208201905081810360008301526131ae81612851565b9050919050565b600060208201905081810360008301526131ce816128d1565b9050919050565b600060208201905081810360008301526131ee81612977565b9050919050565b6000602082019050818103600083015261320e816129dd565b9050919050565b6000602082019050818103600083015261322e81612a43565b9050919050565b6000602082019050818103600083015261324e81612aa9565b9050919050565b6000602082019050818103600083015261326e81612b4f565b9050919050565b6000602082019050818103600083015261328e81612b8f565b9050919050565b600060208201905081810360008301526132ae81612bf5565b9050919050565b600060208201905081810360008301526132ce81612c5b565b9050919050565b600060208201905081810360008301526132ee81612cc1565b9050919050565b6000602082019050818103600083015261330e81612d67565b9050919050565b6000602082019050818103600083015261332e81612e4d565b9050919050565b600060208201905061334a6000830184612eb3565b92915050565b6000604051905081810181811067ffffffffffffffff821117156133775761337661370d565b5b8060405250919050565b600067ffffffffffffffff82111561339c5761339b61370d565b5b601f19601f8301169050602081019050919050565b60008190508160005260206000209050919050565b600081519050919050565b600081519050919050565b600082825260208201905092915050565b600082825260208201905092915050565b600081905092915050565b600061341482613588565b915061341f83613588565b9250827fffffffffffffffffffffffffffffffffffffffffffffffffffffffffffffffff0382111561345457613453613680565b5b828201905092915050565b600061346a82613588565b915061347583613588565b925082613485576134846136af565b5b828204905092915050565b600061349b82613588565b91506134a683613588565b9250817fffffffffffffffffffffffffffffffffffffffffffffffffffffffffffffffff04831182151516156134df576134de613680565b5b828202905092915050565b60006134f582613588565b915061350083613588565b92508282101561351357613512613680565b5b828203905092915050565b600061352982613568565b9050919050565b60008115159050919050565b60007fffffffff0000000000000000000000000000000000000000000000000000000082169050919050565b600073ffffffffffffffffffffffffffffffffffffffff82169050919050565b6000819050919050565b82818337600083830152505050565b60005b838110156135bf5780820151818401526020810190506135a4565b838111156135ce576000848401525b50505050565b600060028204905060018216806135ec57607f821691505b60208210811415613600576135ff6136de565b5b50919050565b600061361182613588565b91507fffffffffffffffffffffffffffffffffffffffffffffffffffffffffffffffff82141561364457613643613680565b5b600182019050919050565b600061365a82613588565b915061366583613588565b925082613675576136746136af565b5b828206905092915050565b7f4e487b7100000000000000000000000000000000000000000000000000000000600052601160045260246000fd5b7f4e487b7100000000000000000000000000000000000000000000000000000000600052601260045260246000fd5b7f4e487b7100000000000000000000000000000000000000000000000000000000600052602260045260246000fd5b7f4e487b7100000000000000000000000000000000000000000000000000000000600052604160045260246000fd5b6000601f19601f8301169050919050565b6137568161351e565b811461376157600080fd5b50565b61376d81613530565b811461377857600080fd5b50565b6137848161353c565b811461378f57600080fd5b50565b61379b81613588565b81146137a657600080fd5b5056fe416e204e465420772f20494420257320686173206265656e206d696e74656420746f2025734142434445464748494a4b4c4d4e4f505152535455565758595a6162636465666768696a6b6c6d6e6f707172737475767778797a303132333435363738392b2fa2646970667358221220c339173bb478dc52dbf5a896051226107d16518c2ad9b1f7da7ab86a1ff04a5664736f6c6343000800003354686973206973206d79204e465420636f6e74726163742e2043484f5241204d414c55434f3c73766720786d6c6e733d27687474703a2f2f7777772e77332e6f72672f323030302f73766727207072657365727665417370656374526174696f3d27784d696e594d696e206d656574272076696577426f783d273020302033353020333530273e3c7374796c653e2e62617365207b2066696c6c3a2077686974653b20666f6e742d66616d696c793a2073657269663b20666f6e742d73697a653a20323470783b207d3c2f7374796c653e3c726563742077696474683d273130302527206865696768743d2731303025272066696c6c3d27626c61636b27202f3e3c7465787420783d273530252720793d273530252720636c6173733d27626173652720646f6d696e616e742d626173656c696e653d276d6964646c652720746578742d616e63686f723d276d6964646c65273e",
  "linkReferences": {},
  "deployedLinkReferences": {}
}